{
  "transactions": [
    {
      "hash": "0xbec0444640fc18d3d528f434cbb02396f9f06cf92e2dbf426003e5cc7a0aaafa",
      "transactionType": "CALL",
      "contractName": "UBlood",
      "contractAddress": "0x8E8148078F913a36C9d8C7FB2da8b479c77c6bA5",
      "function": "addAdmin(address)",
      "arguments": [
        "0x1cB8dF84f3dE9F8Bd57BEfD368cb1DCc193dD313"
      ],
      "rpc": "https://api.avax.network/ext/bc/C/rpc",
      "transaction": {
        "type": "0x02",
        "from": "0x715ac5fc4c4587fa8e425afc1d1207cffb7b66d5",
        "to": "0x8e8148078f913a36c9d8c7fb2da8b479c77c6ba5",
        "gas": "0xf9d5",
        "value": "0x0",
        "data": "0x704802750000000000000000000000001cb8df84f3de9f8bd57befd368cb1dcc193dd313",
        "nonce": "0x489",
        "accessList": []
      },
      "additionalContracts": []
    },
    {
      "hash": null,
      "transactionType": "CALL",
      "contractName": "UBlood",
      "contractAddress": "0x8E8148078F913a36C9d8C7FB2da8b479c77c6bA5",
      "function": "burn(address,uint256)",
      "arguments": [
        "0x53E68553ca08f512423628d64C01B0a14dfCDA99",
        "8000000000000000000000000"
      ],
      "rpc": "https://api.avax.network/ext/bc/C/rpc",
      "transaction": {
        "type": "0x02",
        "from": "0x1cb8df84f3de9f8bd57befd368cb1dcc193dd313",
        "to": "0x8e8148078f913a36c9d8c7fb2da8b479c77c6ba5",
        "gas": "0xd046",
        "value": "0x0",
        "data": "0x9dc29fac00000000000000000000000053e68553ca08f512423628d64c01b0a14dfcda99000000000000000000000000000000000000000000069e10de76676d08000000",
        "nonce": "0x0",
        "accessList": []
      },
      "additionalContracts": []
    }
  ],
  "receipts": [],
  "libraries": [],
  "pending": [],
  "path": "C:/Users/Sam/Blockchain-Projects/UG-Project/contracts-v2-PackedBalance-version/broadcast\\BotDestroyer.s.sol\\43114\\run-latest.json",
  "returns": {},
  "timestamp": 1674184348,
  "chain": 43114,
  "multi": false,
  "commit": "fddabd5"
}