{
  "transactions": [
    {
      "hash": "0x6a322b17498abec8d3bc74883f2bae34c70acc8e1079d387fee1adac5d38e37e",
      "transactionType": "CALL",
      "contractName": "UBlood",
      "contractAddress": "0x8E8148078F913a36C9d8C7FB2da8b479c77c6bA5",
      "function": "mint(address,uint256)",
      "arguments": [
        "0xF44620f0e43594408E8eA75ab779FC4C45626A17",
        "500000000000000000000000"
      ],
      "rpc": "https://api.avax.network/ext/bc/C/rpc",
      "transaction": {
        "type": "0x02",
        "from": "0x715ac5fc4c4587fa8e425afc1d1207cffb7b66d5",
        "to": "0x8e8148078f913a36c9d8c7fb2da8b479c77c6ba5",
        "gas": "0xc535",
        "value": "0x0",
        "data": "0x40c10f19000000000000000000000000f44620f0e43594408e8ea75ab779fc4c45626a170000000000000000000000000000000000000000000069e10de76676d0800000",
        "nonce": "0x493",
        "accessList": []
      },
      "additionalContracts": []
    },
    {
      "hash": "0x5d1e48004dadce31da933a7f1a4a38f7937b708efdde3f891c34e2def420eab3",
      "transactionType": "CALL",
      "contractName": "UBlood",
      "contractAddress": "0x8E8148078F913a36C9d8C7FB2da8b479c77c6bA5",
      "function": "mint(address,uint256)",
      "arguments": [
        "0xB47567964c931ae906a61bB0E61Ef95106F3f8d7",
        "500000000000000000000000"
      ],
      "rpc": "https://api.avax.network/ext/bc/C/rpc",
      "transaction": {
        "type": "0x02",
        "from": "0x715ac5fc4c4587fa8e425afc1d1207cffb7b66d5",
        "to": "0x8e8148078f913a36c9d8c7fb2da8b479c77c6ba5",
        "gas": "0x13280",
        "value": "0x0",
        "data": "0x40c10f19000000000000000000000000b47567964c931ae906a61bb0e61ef95106f3f8d70000000000000000000000000000000000000000000069e10de76676d0800000",
        "nonce": "0x494",
        "accessList": []
      },
      "additionalContracts": []
    },
    {
      "hash": "0xab6aa7e5bf9f2dcff351c7c55dc7933b51d4177e536fe194a34959a2fc98c054",
      "transactionType": "CALL",
      "contractName": "UBlood",
      "contractAddress": "0x8E8148078F913a36C9d8C7FB2da8b479c77c6bA5",
      "function": "mint(address,uint256)",
      "arguments": [
        "0xf003D5E9F389473767FC5d29f8B1f57eec9544EB",
        "500000000000000000000000"
      ],
      "rpc": "https://api.avax.network/ext/bc/C/rpc",
      "transaction": {
        "type": "0x02",
        "from": "0x715ac5fc4c4587fa8e425afc1d1207cffb7b66d5",
        "to": "0x8e8148078f913a36c9d8c7fb2da8b479c77c6ba5",
        "gas": "0xc535",
        "value": "0x0",
        "data": "0x40c10f19000000000000000000000000f003d5e9f389473767fc5d29f8b1f57eec9544eb0000000000000000000000000000000000000000000069e10de76676d0800000",
        "nonce": "0x495",
        "accessList": []
      },
      "additionalContracts": []
    },
    {
      "hash": "0xe8f38deaf893416f98839ffb6e4014f4a9eccffe02b792a468c947f7230f17c6",
      "transactionType": "CALL",
      "contractName": "UBlood",
      "contractAddress": "0x8E8148078F913a36C9d8C7FB2da8b479c77c6bA5",
      "function": "mint(address,uint256)",
      "arguments": [
        "0x05DC467b8173A6C4e8fB222Df4E6b3A80B9D1673",
        "500000000000000000000000"
      ],
      "rpc": "https://api.avax.network/ext/bc/C/rpc",
      "transaction": {
        "type": "0x02",
        "from": "0x715ac5fc4c4587fa8e425afc1d1207cffb7b66d5",
        "to": "0x8e8148078f913a36c9d8c7fb2da8b479c77c6ba5",
        "gas": "0xc535",
        "value": "0x0",
        "data": "0x40c10f1900000000000000000000000005dc467b8173a6c4e8fb222df4e6b3a80b9d16730000000000000000000000000000000000000000000069e10de76676d0800000",
        "nonce": "0x496",
        "accessList": []
      },
      "additionalContracts": []
    },
    {
      "hash": "0x32a40c44bb06af431832c4a1082c1099ef320006af6e57bf72be005d18d44c04",
      "transactionType": "CALL",
      "contractName": "UBlood",
      "contractAddress": "0x8E8148078F913a36C9d8C7FB2da8b479c77c6bA5",
      "function": "mint(address,uint256)",
      "arguments": [
        "0x82F863d1e8a453E1E2E5621F4b12cAa45e3E3D25",
        "500000000000000000000000"
      ],
      "rpc": "https://api.avax.network/ext/bc/C/rpc",
      "transaction": {
        "type": "0x02",
        "from": "0x715ac5fc4c4587fa8e425afc1d1207cffb7b66d5",
        "to": "0x8e8148078f913a36c9d8c7fb2da8b479c77c6ba5",
        "gas": "0xc535",
        "value": "0x0",
        "data": "0x40c10f1900000000000000000000000082f863d1e8a453e1e2e5621f4b12caa45e3e3d250000000000000000000000000000000000000000000069e10de76676d0800000",
        "nonce": "0x497",
        "accessList": []
      },
      "additionalContracts": []
    },
    {
      "hash": "0xd2cd9da86566160ca387297e57db7c2a10a0a6faefaee9a62eb877d1e3448f3f",
      "transactionType": "CALL",
      "contractName": "UBlood",
      "contractAddress": "0x8E8148078F913a36C9d8C7FB2da8b479c77c6bA5",
      "function": "mint(address,uint256)",
      "arguments": [
        "0xfEc688B8d6AFb9De08FAA8890884D104209C17E1",
        "500000000000000000000000"
      ],
      "rpc": "https://api.avax.network/ext/bc/C/rpc",
      "transaction": {
        "type": "0x02",
        "from": "0x715ac5fc4c4587fa8e425afc1d1207cffb7b66d5",
        "to": "0x8e8148078f913a36c9d8c7fb2da8b479c77c6ba5",
        "gas": "0x13280",
        "value": "0x0",
        "data": "0x40c10f19000000000000000000000000fec688b8d6afb9de08faa8890884d104209c17e10000000000000000000000000000000000000000000069e10de76676d0800000",
        "nonce": "0x498",
        "accessList": []
      },
      "additionalContracts": []
    },
    {
      "hash": "0xdb7f588f7c233b861e2270821f0deb431012681fe84cad4ba44663534b61afbf",
      "transactionType": "CALL",
      "contractName": "UBlood",
      "contractAddress": "0x8E8148078F913a36C9d8C7FB2da8b479c77c6bA5",
      "function": "mint(address,uint256)",
      "arguments": [
        "0x384a221529D823fB430ff026fD03aEaB1e236773",
        "500000000000000000000000"
      ],
      "rpc": "https://api.avax.network/ext/bc/C/rpc",
      "transaction": {
        "type": "0x02",
        "from": "0x715ac5fc4c4587fa8e425afc1d1207cffb7b66d5",
        "to": "0x8e8148078f913a36c9d8c7fb2da8b479c77c6ba5",
        "gas": "0xc535",
        "value": "0x0",
        "data": "0x40c10f19000000000000000000000000384a221529d823fb430ff026fd03aeab1e2367730000000000000000000000000000000000000000000069e10de76676d0800000",
        "nonce": "0x499",
        "accessList": []
      },
      "additionalContracts": []
    },
    {
      "hash": "0xa41ec78de06f9681f5cd1efda6d5badcc387036a13b1d6711a6637705d7c1c8a",
      "transactionType": "CALL",
      "contractName": "UBlood",
      "contractAddress": "0x8E8148078F913a36C9d8C7FB2da8b479c77c6bA5",
      "function": "mint(address,uint256)",
      "arguments": [
        "0x82005cF2c06654139a62a461eddB9A3b17c6D6c2",
        "500000000000000000000000"
      ],
      "rpc": "https://api.avax.network/ext/bc/C/rpc",
      "transaction": {
        "type": "0x02",
        "from": "0x715ac5fc4c4587fa8e425afc1d1207cffb7b66d5",
        "to": "0x8e8148078f913a36c9d8c7fb2da8b479c77c6ba5",
        "gas": "0xd0bd",
        "value": "0x0",
        "data": "0x40c10f1900000000000000000000000082005cf2c06654139a62a461eddb9a3b17c6d6c20000000000000000000000000000000000000000000069e10de76676d0800000",
        "nonce": "0x49a",
        "accessList": []
      },
      "additionalContracts": []
    }
  ],
  "receipts": [
    {
      "transactionHash": "0x6a322b17498abec8d3bc74883f2bae34c70acc8e1079d387fee1adac5d38e37e",
      "transactionIndex": "0x3",
      "blockHash": "0xa54f9f7e4f3d9b93e618cc91cdd2bca5cb438d3e76f9e3e84e6fca6613a2bcb7",
      "blockNumber": "0x186bd1f",
      "from": "0x715ac5FC4c4587Fa8e425Afc1D1207Cffb7b66d5",
      "to": "0x8E8148078F913a36C9d8C7FB2da8b479c77c6bA5",
      "cumulativeGasUsed": "0x2fff8",
      "gasUsed": "0x8ec7",
      "contractAddress": null,
      "logs": [
        {
          "address": "0x8E8148078F913a36C9d8C7FB2da8b479c77c6bA5",
          "topics": [
            "0xddf252ad1be2c89b69c2b068fc378daa952ba7f163c4a11628f55a4df523b3ef",
            "0x0000000000000000000000000000000000000000000000000000000000000000",
            "0x000000000000000000000000f44620f0e43594408e8ea75ab779fc4c45626a17"
          ],
          "data": "0x0000000000000000000000000000000000000000000069e10de76676d0800000",
          "blockHash": "0xa54f9f7e4f3d9b93e618cc91cdd2bca5cb438d3e76f9e3e84e6fca6613a2bcb7",
          "blockNumber": "0x186bd1f",
          "transactionHash": "0x6a322b17498abec8d3bc74883f2bae34c70acc8e1079d387fee1adac5d38e37e",
          "transactionIndex": "0x3",
          "logIndex": "0x3",
          "removed": false
        }
      ],
      "status": "0x1",
      "logsBloom": "0x00000000000000000000000000000004000000000000000000000000000000000000000000000000000000000000000000000000000000000000000000000000000000000000000000000008000004000000000000000000000000000000000000000000020000000000040000000800800000000000000040000010000000000000000000000000000000000000000000000000000000000000000000000000000000000100000000000000000000000000000000000000000000000000000000000002000000000000000000000000000000000000000000000000000020000000000000000000000000000000000000000000000000000000000000000000",
      "type": "0x2",
      "effectiveGasPrice": "0x684ee1800"
    }
  ],
  "libraries": [],
  "pending": [],
  "path": "C:/Users/Sam/Blockchain-Projects/UG-Project/contracts-v2-PackedBalance-version/broadcast\\BloodDrop.s.sol\\43114\\run-latest.json",
  "returns": {},
  "timestamp": 1675080348,
  "chain": 43114,
  "multi": false,
  "commit": "fddabd5"
}