{
  "transactions": [
    {
      "hash": null,
      "transactionType": "CALL",
      "contractName": "UBlood",
      "contractAddress": "0x8E8148078F913a36C9d8C7FB2da8b479c77c6bA5",
      "function": "mint(address,uint256)",
      "arguments": [
        "0xF44620f0e43594408E8eA75ab779FC4C45626A17",
        "500000000000000000000000"
      ],
      "rpc": "https://api.avax.network/ext/bc/C/rpc",
      "transaction": {
        "type": "0x02",
        "from": "0x715ac5fc4c4587fa8e425afc1d1207cffb7b66d5",
        "to": "0x8e8148078f913a36c9d8c7fb2da8b479c77c6ba5",
        "gas": "0xc535",
        "value": "0x0",
        "data": "0x40c10f19000000000000000000000000f44620f0e43594408e8ea75ab779fc4c45626a170000000000000000000000000000000000000000000069e10de76676d0800000",
        "nonce": "0x493",
        "accessList": []
      },
      "additionalContracts": []
    },
    {
      "hash": null,
      "transactionType": "CALL",
      "contractName": "UBlood",
      "contractAddress": "0x8E8148078F913a36C9d8C7FB2da8b479c77c6bA5",
      "function": "mint(address,uint256)",
      "arguments": [
        "0xB47567964c931ae906a61bB0E61Ef95106F3f8d7",
        "500000000000000000000000"
      ],
      "rpc": "https://api.avax.network/ext/bc/C/rpc",
      "transaction": {
        "type": "0x02",
        "from": "0x715ac5fc4c4587fa8e425afc1d1207cffb7b66d5",
        "to": "0x8e8148078f913a36c9d8c7fb2da8b479c77c6ba5",
        "gas": "0x13280",
        "value": "0x0",
        "data": "0x40c10f19000000000000000000000000b47567964c931ae906a61bb0e61ef95106f3f8d70000000000000000000000000000000000000000000069e10de76676d0800000",
        "nonce": "0x494",
        "accessList": []
      },
      "additionalContracts": []
    },
    {
      "hash": null,
      "transactionType": "CALL",
      "contractName": "UBlood",
      "contractAddress": "0x8E8148078F913a36C9d8C7FB2da8b479c77c6bA5",
      "function": "mint(address,uint256)",
      "arguments": [
        "0xf003D5E9F389473767FC5d29f8B1f57eec9544EB",
        "500000000000000000000000"
      ],
      "rpc": "https://api.avax.network/ext/bc/C/rpc",
      "transaction": {
        "type": "0x02",
        "from": "0x715ac5fc4c4587fa8e425afc1d1207cffb7b66d5",
        "to": "0x8e8148078f913a36c9d8c7fb2da8b479c77c6ba5",
        "gas": "0xc535",
        "value": "0x0",
        "data": "0x40c10f19000000000000000000000000f003d5e9f389473767fc5d29f8b1f57eec9544eb0000000000000000000000000000000000000000000069e10de76676d0800000",
        "nonce": "0x495",
        "accessList": []
      },
      "additionalContracts": []
    },
    {
      "hash": null,
      "transactionType": "CALL",
      "contractName": "UBlood",
      "contractAddress": "0x8E8148078F913a36C9d8C7FB2da8b479c77c6bA5",
      "function": "mint(address,uint256)",
      "arguments": [
        "0x05DC467b8173A6C4e8fB222Df4E6b3A80B9D1673",
        "500000000000000000000000"
      ],
      "rpc": "https://api.avax.network/ext/bc/C/rpc",
      "transaction": {
        "type": "0x02",
        "from": "0x715ac5fc4c4587fa8e425afc1d1207cffb7b66d5",
        "to": "0x8e8148078f913a36c9d8c7fb2da8b479c77c6ba5",
        "gas": "0xc535",
        "value": "0x0",
        "data": "0x40c10f1900000000000000000000000005dc467b8173a6c4e8fb222df4e6b3a80b9d16730000000000000000000000000000000000000000000069e10de76676d0800000",
        "nonce": "0x496",
        "accessList": []
      },
      "additionalContracts": []
    },
    {
      "hash": null,
      "transactionType": "CALL",
      "contractName": "UBlood",
      "contractAddress": "0x8E8148078F913a36C9d8C7FB2da8b479c77c6bA5",
      "function": "mint(address,uint256)",
      "arguments": [
        "0x82F863d1e8a453E1E2E5621F4b12cAa45e3E3D25",
        "500000000000000000000000"
      ],
      "rpc": "https://api.avax.network/ext/bc/C/rpc",
      "transaction": {
        "type": "0x02",
        "from": "0x715ac5fc4c4587fa8e425afc1d1207cffb7b66d5",
        "to": "0x8e8148078f913a36c9d8c7fb2da8b479c77c6ba5",
        "gas": "0xc535",
        "value": "0x0",
        "data": "0x40c10f1900000000000000000000000082f863d1e8a453e1e2e5621f4b12caa45e3e3d250000000000000000000000000000000000000000000069e10de76676d0800000",
        "nonce": "0x497",
        "accessList": []
      },
      "additionalContracts": []
    },
    {
      "hash": null,
      "transactionType": "CALL",
      "contractName": "UBlood",
      "contractAddress": "0x8E8148078F913a36C9d8C7FB2da8b479c77c6bA5",
      "function": "mint(address,uint256)",
      "arguments": [
        "0xfEc688B8d6AFb9De08FAA8890884D104209C17E1",
        "500000000000000000000000"
      ],
      "rpc": "https://api.avax.network/ext/bc/C/rpc",
      "transaction": {
        "type": "0x02",
        "from": "0x715ac5fc4c4587fa8e425afc1d1207cffb7b66d5",
        "to": "0x8e8148078f913a36c9d8c7fb2da8b479c77c6ba5",
        "gas": "0x13280",
        "value": "0x0",
        "data": "0x40c10f19000000000000000000000000fec688b8d6afb9de08faa8890884d104209c17e10000000000000000000000000000000000000000000069e10de76676d0800000",
        "nonce": "0x498",
        "accessList": []
      },
      "additionalContracts": []
    },
    {
      "hash": null,
      "transactionType": "CALL",
      "contractName": "UBlood",
      "contractAddress": "0x8E8148078F913a36C9d8C7FB2da8b479c77c6bA5",
      "function": "mint(address,uint256)",
      "arguments": [
        "0x384a221529D823fB430ff026fD03aEaB1e236773",
        "500000000000000000000000"
      ],
      "rpc": "https://api.avax.network/ext/bc/C/rpc",
      "transaction": {
        "type": "0x02",
        "from": "0x715ac5fc4c4587fa8e425afc1d1207cffb7b66d5",
        "to": "0x8e8148078f913a36c9d8c7fb2da8b479c77c6ba5",
        "gas": "0xc535",
        "value": "0x0",
        "data": "0x40c10f19000000000000000000000000384a221529d823fb430ff026fd03aeab1e2367730000000000000000000000000000000000000000000069e10de76676d0800000",
        "nonce": "0x499",
        "accessList": []
      },
      "additionalContracts": []
    },
    {
      "hash": null,
      "transactionType": "CALL",
      "contractName": "UBlood",
      "contractAddress": "0x8E8148078F913a36C9d8C7FB2da8b479c77c6bA5",
      "function": "mint(address,uint256)",
      "arguments": [
        "0x82005cF2c06654139a62a461eddB9A3b17c6D6c2",
        "500000000000000000000000"
      ],
      "rpc": "https://api.avax.network/ext/bc/C/rpc",
      "transaction": {
        "type": "0x02",
        "from": "0x715ac5fc4c4587fa8e425afc1d1207cffb7b66d5",
        "to": "0x8e8148078f913a36c9d8c7fb2da8b479c77c6ba5",
        "gas": "0xd0bd",
        "value": "0x0",
        "data": "0x40c10f1900000000000000000000000082005cf2c06654139a62a461eddb9a3b17c6d6c20000000000000000000000000000000000000000000069e10de76676d0800000",
        "nonce": "0x49a",
        "accessList": []
      },
      "additionalContracts": []
    }
  ],
  "receipts": [],
  "libraries": [],
  "pending": [],
  "path": "C:/Users/Sam/Blockchain-Projects/UG-Project/contracts-v2-PackedBalance-version/broadcast\\BloodDrop.s.sol\\43114\\dry-run\\run-latest.json",
  "returns": {},
  "timestamp": 1675080316,
  "chain": 43114,
  "multi": false,
  "commit": "fddabd5"
}